{
  "transactions": [
    {
      "hash": "0x5ab9f918b9f3b1659054304bb48e896dff3683909e89d51c3aba89bdb9abb80b",
      "transactionType": "CALL",
      "contractName": null,
      "contractAddress": "0x4d82d72af7ee91b5c16ca3a4c85585e9791f9cc0",
      "function": "setAssetSources(address[],address[])",
      "arguments": [
        "[0x980B62Da83eFf3D4576C647993b0c1D7faf17c73, 0xf3C3351D6Bd0098EEb33ca8f830FAf2a141Ea2E1, 0x30fA2FbE15c1EaDfbEF28C188b7B8dbd3c1Ff2eB, 0xbC47901f4d2C5fc871ae0037Ea05c3F614690781, 0x152B0DF80135c63B4Cb1FBE00DDCE7E9a8FFCb04]",
        "[0x2d3bBa5e0A9Fd8EAa45Dcf71A2389b7C12005b1f, 0x0153002d20B96532C639313c2d54c3dA09109309, 0x80EDee6f667eCc9f63a0a6f55578F870651f06A4, 0xb113F5A928BCfF189C998ab20d753a47F9dE5A61, 0x56a43EB56Da12C0dc1D972ACb089c06a5dEF8e69]"
      ],
      "transaction": {
        "from": "0xdec4e9f46f9a4f7af7ccb62c1512b086fa054829",
        "to": "0x4d82d72af7ee91b5c16ca3a4c85585e9791f9cc0",
        "gas": "0x3408d",
        "value": "0x0",
        "input": "0xabfd5310000000000000000000000000000000000000000000000000000000000000004000000000000000000000000000000000000000000000000000000000000001000000000000000000000000000000000000000000000000000000000000000005000000000000000000000000980b62da83eff3d4576c647993b0c1d7faf17c73000000000000000000000000f3c3351d6bd0098eeb33ca8f830faf2a141ea2e100000000000000000000000030fa2fbe15c1eadfbef28c188b7b8dbd3c1ff2eb000000000000000000000000bc47901f4d2c5fc871ae0037ea05c3f614690781000000000000000000000000152b0df80135c63b4cb1fbe00ddce7e9a8ffcb0400000000000000000000000000000000000000000000000000000000000000050000000000000000000000002d3bba5e0a9fd8eaa45dcf71a2389b7c12005b1f0000000000000000000000000153002d20b96532c639313c2d54c3da0910930900000000000000000000000080edee6f667ecc9f63a0a6f55578f870651f06a4000000000000000000000000b113f5a928bcff189c998ab20d753a47f9de5a6100000000000000000000000056a43eb56da12c0dc1d972acb089c06a5def8e69",
        "nonce": "0x2c",
        "chainId": "0x66eee"
      },
      "additionalContracts": [],
      "isFixedGasLimit": false
    }
  ],
  "receipts": [
    {
      "status": "0x1",
      "cumulativeGasUsed": "0x276dc",
      "logs": [
        {
          "address": "0x4d82d72af7ee91b5c16ca3a4c85585e9791f9cc0",
          "topics": [
            "0x22c5b7b2d8561d39f7f210b6b326a1aa69f15311163082308ac4877db6339dc1",
            "0x000000000000000000000000980b62da83eff3d4576c647993b0c1d7faf17c73",
            "0x0000000000000000000000002d3bba5e0a9fd8eaa45dcf71a2389b7c12005b1f"
          ],
          "data": "0x",
          "blockHash": "0x189f0a3e879c9061b617b677f251122ae9b0f72157bec88e8251f2cfa6d15108",
          "blockNumber": "0xe9d1b5e",
          "blockTimestamp": "0x699efe97",
          "transactionHash": "0x5ab9f918b9f3b1659054304bb48e896dff3683909e89d51c3aba89bdb9abb80b",
          "transactionIndex": "0x1",
          "logIndex": "0x0",
          "removed": false
        },
        {
          "address": "0x4d82d72af7ee91b5c16ca3a4c85585e9791f9cc0",
          "topics": [
            "0x22c5b7b2d8561d39f7f210b6b326a1aa69f15311163082308ac4877db6339dc1",
            "0x000000000000000000000000f3c3351d6bd0098eeb33ca8f830faf2a141ea2e1",
            "0x0000000000000000000000000153002d20b96532c639313c2d54c3da09109309"
          ],
          "data": "0x",
          "blockHash": "0x189f0a3e879c9061b617b677f251122ae9b0f72157bec88e8251f2cfa6d15108",
          "blockNumber": "0xe9d1b5e",
          "blockTimestamp": "0x699efe97",
          "transactionHash": "0x5ab9f918b9f3b1659054304bb48e896dff3683909e89d51c3aba89bdb9abb80b",
          "transactionIndex": "0x1",
          "logIndex": "0x1",
          "removed": false
        },
        {
          "address": "0x4d82d72af7ee91b5c16ca3a4c85585e9791f9cc0",
          "topics": [
            "0x22c5b7b2d8561d39f7f210b6b326a1aa69f15311163082308ac4877db6339dc1",
            "0x00000000000000000000000030fa2fbe15c1eadfbef28c188b7b8dbd3c1ff2eb",
            "0x00000000000000000000000080edee6f667ecc9f63a0a6f55578f870651f06a4"
          ],
          "data": "0x",
          "blockHash": "0x189f0a3e879c9061b617b677f251122ae9b0f72157bec88e8251f2cfa6d15108",
          "blockNumber": "0xe9d1b5e",
          "blockTimestamp": "0x699efe97",
          "transactionHash": "0x5ab9f918b9f3b1659054304bb48e896dff3683909e89d51c3aba89bdb9abb80b",
          "transactionIndex": "0x1",
          "logIndex": "0x2",
          "removed": false
        },
        {
          "address": "0x4d82d72af7ee91b5c16ca3a4c85585e9791f9cc0",
          "topics": [
            "0x22c5b7b2d8561d39f7f210b6b326a1aa69f15311163082308ac4877db6339dc1",
            "0x000000000000000000000000bc47901f4d2c5fc871ae0037ea05c3f614690781",
            "0x000000000000000000000000b113f5a928bcff189c998ab20d753a47f9de5a61"
          ],
          "data": "0x",
          "blockHash": "0x189f0a3e879c9061b617b677f251122ae9b0f72157bec88e8251f2cfa6d15108",
          "blockNumber": "0xe9d1b5e",
          "blockTimestamp": "0x699efe97",
          "transactionHash": "0x5ab9f918b9f3b1659054304bb48e896dff3683909e89d51c3aba89bdb9abb80b",
          "transactionIndex": "0x1",
          "logIndex": "0x3",
          "removed": false
        },
        {
          "address": "0x4d82d72af7ee91b5c16ca3a4c85585e9791f9cc0",
          "topics": [
            "0x22c5b7b2d8561d39f7f210b6b326a1aa69f15311163082308ac4877db6339dc1",
            "0x000000000000000000000000152b0df80135c63b4cb1fbe00ddce7e9a8ffcb04",
            "0x00000000000000000000000056a43eb56da12c0dc1d972acb089c06a5def8e69"
          ],
          "data": "0x",
          "blockHash": "0x189f0a3e879c9061b617b677f251122ae9b0f72157bec88e8251f2cfa6d15108",
          "blockNumber": "0xe9d1b5e",
          "blockTimestamp": "0x699efe97",
          "transactionHash": "0x5ab9f918b9f3b1659054304bb48e896dff3683909e89d51c3aba89bdb9abb80b",
          "transactionIndex": "0x1",
          "logIndex": "0x4",
          "removed": false
        }
      ],
      "logsBloom": "0x20000000000000000000000000000000000000080000000000000000000000000800000000000000001000000001000000000000000000000000000000000000000020000000000000000080000000000000000000000000000000002002000000020000000000800000000010020000000400000000000008080010000000000020000000000000000000200010008000000002000010000000000000002000800000000000000600000000000004200000000000000000000000000040000000000000000000000000000a00000000000008000000000020000000000000000000000000000000000000000000400000000000000000000000000000000040",
      "type": "0x2",
      "transactionHash": "0x5ab9f918b9f3b1659054304bb48e896dff3683909e89d51c3aba89bdb9abb80b",
      "transactionIndex": "0x1",
      "blockHash": "0x189f0a3e879c9061b617b677f251122ae9b0f72157bec88e8251f2cfa6d15108",
      "blockNumber": "0xe9d1b5e",
      "gasUsed": "0x276dc",
      "effectiveGasPrice": "0x1312d00",
      "from": "0xdec4e9f46f9a4f7af7ccb62c1512b086fa054829",
      "to": "0x4d82d72af7ee91b5c16ca3a4c85585e9791f9cc0",
      "contractAddress": null,
      "gasUsedForL1": "0x0",
      "l1BlockNumber": "0x9dafde",
      "timeboosted": false
    }
  ],
  "libraries": [],
  "pending": [],
  "returns": {},
  "timestamp": 1772027542122,
  "chain": 421614,
  "commit": "035b3e2"
}